{
  "contractName": "DAO",
  "abi": [
    {
      "inputs": [
        {
          "internalType": "address",
          "name": "_token",
          "type": "address"
        }
      ],
      "stateMutability": "nonpayable",
      "type": "constructor"
    },
    {
      "inputs": [
        {
          "internalType": "bytes32",
          "name": "",
          "type": "bytes32"
        }
      ],
      "name": "proposals",
      "outputs": [
        {
          "internalType": "address",
          "name": "author",
          "type": "address"
        },
        {
          "internalType": "bytes32",
          "name": "hash",
          "type": "bytes32"
        },
        {
          "internalType": "uint256",
          "name": "createdAt",
          "type": "uint256"
        },
        {
          "internalType": "uint256",
          "name": "votesYes",
          "type": "uint256"
        },
        {
          "internalType": "uint256",
          "name": "votesNo",
          "type": "uint256"
        },
        {
          "internalType": "enum DAO.Status",
          "name": "status",
          "type": "uint8"
        }
      ],
      "stateMutability": "view",
      "type": "function"
    },
    {
      "inputs": [
        {
          "internalType": "address",
          "name": "",
          "type": "address"
        }
      ],
      "name": "shares",
      "outputs": [
        {
          "internalType": "uint256",
          "name": "",
          "type": "uint256"
        }
      ],
      "stateMutability": "view",
      "type": "function"
    },
    {
      "inputs": [],
      "name": "token",
      "outputs": [
        {
          "internalType": "contract IERC20",
          "name": "",
          "type": "address"
        }
      ],
      "stateMutability": "view",
      "type": "function"
    },
    {
      "inputs": [],
      "name": "totalShares",
      "outputs": [
        {
          "internalType": "uint256",
          "name": "",
          "type": "uint256"
        }
      ],
      "stateMutability": "view",
      "type": "function"
    },
    {
      "inputs": [
        {
          "internalType": "address",
          "name": "",
          "type": "address"
        },
        {
          "internalType": "bytes32",
          "name": "",
          "type": "bytes32"
        }
      ],
      "name": "votes",
      "outputs": [
        {
          "internalType": "bool",
          "name": "",
          "type": "bool"
        }
      ],
      "stateMutability": "view",
      "type": "function"
    },
    {
      "inputs": [
        {
          "internalType": "uint256",
          "name": "amount",
          "type": "uint256"
        }
      ],
      "name": "deposit",
      "outputs": [],
      "stateMutability": "nonpayable",
      "type": "function"
    },
    {
      "inputs": [
        {
          "internalType": "uint256",
          "name": "amount",
          "type": "uint256"
        }
      ],
      "name": "withdraw",
      "outputs": [],
      "stateMutability": "nonpayable",
      "type": "function"
    },
    {
      "inputs": [
        {
          "internalType": "bytes32",
          "name": "proposalHash",
          "type": "bytes32"
        }
      ],
      "name": "createProposal",
      "outputs": [],
      "stateMutability": "nonpayable",
      "type": "function"
    },
    {
      "inputs": [
        {
          "internalType": "bytes32",
          "name": "proposalHash",
          "type": "bytes32"
        },
        {
          "internalType": "enum DAO.Side",
          "name": "side",
          "type": "uint8"
        }
      ],
      "name": "vote",
      "outputs": [],
      "stateMutability": "nonpayable",
      "type": "function"
    }
  ],
  "bytecode": "0x60806040523480156200001157600080fd5b506040516200145638038062001456833981810160405281019062000037919062000096565b80600460006101000a81548173ffffffffffffffffffffffffffffffffffffffff021916908373ffffffffffffffffffffffffffffffffffffffff160217905550506200011b565b600081519050620000908162000101565b92915050565b600060208284031215620000af57620000ae620000fc565b5b6000620000bf848285016200007f565b91505092915050565b6000620000d582620000dc565b9050919050565b600073ffffffffffffffffffffffffffffffffffffffff82169050919050565b600080fd5b6200010c81620000c8565b81146200011857600080fd5b50565b61132b806200012b6000396000f3fe608060405234801561001057600080fd5b50600436106100935760003560e01c80633a98ef39116100665780633a98ef3914610135578063b6b55f2514610153578063c9a28cb91461016f578063ce7c2ac21461018b578063fc0c546a146101bb57610093565b80631db5ade8146100985780632542bf06146100c85780632e1a7d4d146100e457806332ed5b1214610100575b600080fd5b6100b260048036038101906100ad9190610b6d565b6101d9565b6040516100bf9190610e3e565b60405180910390f35b6100e260048036038101906100dd9190610bda565b610208565b005b6100fe60048036038101906100f99190610c47565b6103fc565b005b61011a60048036038101906101159190610bda565b6105a0565b60405161012c96959493929190610db4565b60405180910390f35b61013d610609565b60405161014a9190610f14565b60405180910390f35b61016d60048036038101906101689190610c47565b61060f565b005b61018960048036038101906101849190610c07565b610733565b005b6101a560048036038101906101a09190610b40565b610a99565b6040516101b29190610f14565b60405180910390f35b6101c3610ab1565b6040516101d09190610e59565b60405180910390f35b60016020528160005260406000206020528060005260406000206000915091509054906101000a900460ff1681565b683635c9adc5dea00000600260003373ffffffffffffffffffffffffffffffffffffffff1673ffffffffffffffffffffffffffffffffffffffff168152602001908152602001600020541015610293576040517f08c379a000000000000000000000000000000000000000000000000000000000815260040161028a90610e74565b60405180910390fd5b6000801b60008083815260200190815260200160002060010154146102ed576040517f08c379a00000000000000000000000000000000000000000000000000000000081526004016102e490610ed4565b60405180910390fd5b6040518060c001604052803373ffffffffffffffffffffffffffffffffffffffff1681526020018281526020014281526020016000815260200160008152602001600060028111156103425761034161114e565b5b81525060008083815260200190815260200160002060008201518160000160006101000a81548173ffffffffffffffffffffffffffffffffffffffff021916908373ffffffffffffffffffffffffffffffffffffffff1602179055506020820151816001015560408201518160020155606082015181600301556080820151816004015560a08201518160050160006101000a81548160ff021916908360028111156103f1576103f061114e565b5b021790555090505050565b80600260003373ffffffffffffffffffffffffffffffffffffffff1673ffffffffffffffffffffffffffffffffffffffff16815260200190815260200160002054101561047e576040517f08c379a000000000000000000000000000000000000000000000000000000000815260040161047590610e94565b60405180910390fd5b80600260003373ffffffffffffffffffffffffffffffffffffffff1673ffffffffffffffffffffffffffffffffffffffff16815260200190815260200160002060008282546104cd9190611021565b9250508190555080600360008282546104e69190611021565b92505081905550600460009054906101000a900473ffffffffffffffffffffffffffffffffffffffff1673ffffffffffffffffffffffffffffffffffffffff1663a9059cbb33836040518363ffffffff1660e01b815260040161054a929190610e15565b602060405180830381600087803b15801561056457600080fd5b505af1158015610578573d6000803e3d6000fd5b505050506040513d601f19601f8201168201806040525081019061059c9190610bad565b5050565b60006020528060005260406000206000915090508060000160009054906101000a900473ffffffffffffffffffffffffffffffffffffffff16908060010154908060020154908060030154908060040154908060050160009054906101000a900460ff16905086565b60035481565b80600260003373ffffffffffffffffffffffffffffffffffffffff1673ffffffffffffffffffffffffffffffffffffffff168152602001908152602001600020600082825461065e9190610f40565b9250508190555080600360008282546106779190610f40565b92505081905550600460009054906101000a900473ffffffffffffffffffffffffffffffffffffffff1673ffffffffffffffffffffffffffffffffffffffff166323b872dd3330846040518463ffffffff1660e01b81526004016106dd93929190610d7d565b602060405180830381600087803b1580156106f757600080fd5b505af115801561070b573d6000803e3d6000fd5b505050506040513d601f19601f8201168201806040525081019061072f9190610bad565b5050565b6000806000848152602001908152602001600020905060001515600160003373ffffffffffffffffffffffffffffffffffffffff1673ffffffffffffffffffffffffffffffffffffffff168152602001908152602001600020600085815260200190815260200160002060009054906101000a900460ff161515146107ed576040517f08c379a00000000000000000000000000000000000000000000000000000000081526004016107e490610eb4565b60405180910390fd5b6000801b600080858152602001908152602001600020600101541415610848576040517f08c379a000000000000000000000000000000000000000000000000000000000815260040161083f90610ed4565b60405180910390fd5b62093a80816002015461085b9190610f40565b42111561089d576040517f08c379a000000000000000000000000000000000000000000000000000000000815260040161089490610ef4565b60405180910390fd5b60018060003373ffffffffffffffffffffffffffffffffffffffff1673ffffffffffffffffffffffffffffffffffffffff168152602001908152602001600020600085815260200190815260200160002060006101000a81548160ff021916908315150217905550600060018111156109195761091861114e565b5b82600181111561092c5761092b61114e565b5b1415610a9457600260003373ffffffffffffffffffffffffffffffffffffffff1673ffffffffffffffffffffffffffffffffffffffff168152602001908152602001600020548160030160008282546109859190610f40565b925050819055506032600354606483600301546109a29190610fc7565b6109ac9190610f96565b11156109e45760018160050160006101000a81548160ff021916908360028111156109da576109d961114e565b5b0217905550610a93565b600260003373ffffffffffffffffffffffffffffffffffffffff1673ffffffffffffffffffffffffffffffffffffffff16815260200190815260200160002054816004016000828254610a379190610f40565b92505081905550603260035460648360040154610a549190610fc7565b610a5e9190610f96565b1115610a925760028160050160006101000a81548160ff02191690836002811115610a8c57610a8b61114e565b5b02179055505b5b5b505050565b60026020528060005260406000206000915090505481565b600460009054906101000a900473ffffffffffffffffffffffffffffffffffffffff1681565b600081359050610ae681611289565b92915050565b600081519050610afb816112a0565b92915050565b600081359050610b10816112b7565b92915050565b600081359050610b25816112ce565b92915050565b600081359050610b3a816112de565b92915050565b600060208284031215610b5657610b5561117d565b5b6000610b6484828501610ad7565b91505092915050565b60008060408385031215610b8457610b8361117d565b5b6000610b9285828601610ad7565b9250506020610ba385828601610b01565b9150509250929050565b600060208284031215610bc357610bc261117d565b5b6000610bd184828501610aec565b91505092915050565b600060208284031215610bf057610bef61117d565b5b6000610bfe84828501610b01565b91505092915050565b60008060408385031215610c1e57610c1d61117d565b5b6000610c2c85828601610b01565b9250506020610c3d85828601610b16565b9150509250929050565b600060208284031215610c5d57610c5c61117d565b5b6000610c6b84828501610b2b565b91505092915050565b610c7d81611055565b82525050565b610c8c81611067565b82525050565b610c9b81611073565b82525050565b610caa816110ba565b82525050565b610cb9816110de565b82525050565b6000610ccc602483610f2f565b9150610cd782611182565b604082019050919050565b6000610cef601183610f2f565b9150610cfa826111d1565b602082019050919050565b6000610d12600d83610f2f565b9150610d1d826111fa565b602082019050919050565b6000610d35601683610f2f565b9150610d4082611223565b602082019050919050565b6000610d58601283610f2f565b9150610d638261124c565b602082019050919050565b610d77816110b0565b82525050565b6000606082019050610d926000830186610c74565b610d9f6020830185610c74565b610dac6040830184610d6e565b949350505050565b600060c082019050610dc96000830189610c74565b610dd66020830188610c92565b610de36040830187610d6e565b610df06060830186610d6e565b610dfd6080830185610d6e565b610e0a60a0830184610cb0565b979650505050505050565b6000604082019050610e2a6000830185610c74565b610e376020830184610d6e565b9392505050565b6000602082019050610e536000830184610c83565b92915050565b6000602082019050610e6e6000830184610ca1565b92915050565b60006020820190508181036000830152610e8d81610cbf565b9050919050565b60006020820190508181036000830152610ead81610ce2565b9050919050565b60006020820190508181036000830152610ecd81610d05565b9050919050565b60006020820190508181036000830152610eed81610d28565b9050919050565b60006020820190508181036000830152610f0d81610d4b565b9050919050565b6000602082019050610f296000830184610d6e565b92915050565b600082825260208201905092915050565b6000610f4b826110b0565b9150610f56836110b0565b9250827fffffffffffffffffffffffffffffffffffffffffffffffffffffffffffffffff03821115610f8b57610f8a6110f0565b5b828201905092915050565b6000610fa1826110b0565b9150610fac836110b0565b925082610fbc57610fbb61111f565b5b828204905092915050565b6000610fd2826110b0565b9150610fdd836110b0565b9250817fffffffffffffffffffffffffffffffffffffffffffffffffffffffffffffffff0483118215151615611016576110156110f0565b5b828202905092915050565b600061102c826110b0565b9150611037836110b0565b92508282101561104a576110496110f0565b5b828203905092915050565b600061106082611090565b9050919050565b60008115159050919050565b6000819050919050565b600081905061108b82611275565b919050565b600073ffffffffffffffffffffffffffffffffffffffff82169050919050565b6000819050919050565b60006110c5826110cc565b9050919050565b60006110d782611090565b9050919050565b60006110e98261107d565b9050919050565b7f4e487b7100000000000000000000000000000000000000000000000000000000600052601160045260246000fd5b7f4e487b7100000000000000000000000000000000000000000000000000000000600052601260045260246000fd5b7f4e487b7100000000000000000000000000000000000000000000000000000000600052602160045260246000fd5b600080fd5b7f6e6f7420656e6f7567682073686172657320746f206372656174652070726f7060008201527f6f73616c00000000000000000000000000000000000000000000000000000000602082015250565b7f6e6f7420656e6f75676820736861726573000000000000000000000000000000600082015250565b7f616c726561647920766f74656400000000000000000000000000000000000000600082015250565b7f70726f706f73616c20616c726561647920657869737400000000000000000000600082015250565b7f766f74696e6720706572696f64206f7665720000000000000000000000000000600082015250565b600381106112865761128561114e565b5b50565b61129281611055565b811461129d57600080fd5b50565b6112a981611067565b81146112b457600080fd5b50565b6112c081611073565b81146112cb57600080fd5b50565b600281106112db57600080fd5b50565b6112e7816110b0565b81146112f257600080fd5b5056fea26469706673582212203e13af91dbf3b4b534df4bfbce28ef3ebf49ee1676ae093b9e01bf3e2c7a1ee764736f6c63430008060033",
  "immutableReferences": {},
  "source": "pragma solidity ^0.8.6;\r\n//SPDX-License-Identifier:UNLICENSED\r\n\r\nimport '@openzeppelin/contracts/token/ERC20/IERC20.sol';\r\n\r\ncontract DAO {\r\n    //Side to vote for each proposal\r\n    enum Side {Yes, No}\r\n    enum Status { Undecided, Approved, Rejected }\r\n    struct Proposal {\r\n        address author;\r\n        //calculate the hash of the proposal\r\n        bytes32 hash;\r\n        //date\r\n        uint createdAt;\r\n        uint votesYes;\r\n        uint votesNo;\r\n        Status status;\r\n    }\r\n    //index the proposals by the hashes\r\n    mapping(bytes32 => Proposal) public proposals;\r\n    //who voted for who, identified the proposal\r\n    mapping(address => mapping(bytes32 => bool)) public votes;\r\n    //maps the address of the investor by shares\r\n    mapping(address => uint) public shares;\r\n    //keep track of what's the total amounts by share\r\n    uint public totalShares;\r\n    IERC20 public token;\r\n    //shares you need to create a proposal\r\n    uint constant CREATE_PROPOSAL_MIN_SHARE = 1000 * 10 ** 18;\r\n    //say the voting period is seven days\r\n    uint constant VOTING_PERIOD = 7 days;\r\n    //uint constant VOTING_PERIOD = 7 days;\r\n\r\n    constructor(address _token){\r\n        //instanciate token var\r\n        //to minapulate governance token\r\n        token = IERC20(_token);\r\n    }\r\n    //how many token we want to deposit\r\n    function deposit(uint amount) external {\r\n        //increment the shares\r\n        shares[msg.sender] += amount;\r\n        //1 share = 1 governance token\r\n        totalShares += amount;\r\n        token.transferFrom(msg.sender, address(this), amount);\r\n    }\r\n\r\n    function withdraw(uint amount) external {\r\n        require(shares[msg.sender] >= amount, 'not enough shares');\r\n        shares[msg.sender] -= amount;\r\n        totalShares -= amount;\r\n        token.transfer(msg.sender, amount);\r\n    }\r\n\r\n    function createProposal(bytes32 proposalHash) external {\r\n        require(//verify if we have enough shares to create a proposal\r\n            shares[msg.sender] >= CREATE_PROPOSAL_MIN_SHARE,\r\n            'not enough shares to create proposal'\r\n        );\r\n        require(proposals[proposalHash].hash == bytes32(0), 'proposal already exist');\r\n        proposals[proposalHash] = Proposal(\r\n            msg.sender,\r\n            proposalHash,\r\n            block.timestamp,\r\n            0,\r\n            0,\r\n            Status.Undecided\r\n        );\r\n    }\r\n    //creating vote once the proposal is creating and wich side yes or no\r\n    function vote(bytes32 proposalHash, Side side) external {\r\n        Proposal storage proposal = proposals[proposalHash];\r\n         //make sure this address not voted already\r\n        require(votes[msg.sender][proposalHash] == false, 'already voted');\r\n\r\n        require(proposals[proposalHash].hash != bytes32(0), 'proposal already exist');\r\n       \r\n        //require the proposal\r\n        require(block.timestamp <= proposal.createdAt + VOTING_PERIOD, 'voting period over');\r\n        votes[msg.sender][proposalHash] = true;\r\n        if(side == Side.Yes){\r\n            //increments YES proportional to number of shares\r\n            proposal.votesYes += shares[msg.sender];\r\n            //if we we have enough votes, divided by the shares\r\n            if(proposal.votesYes * 100 / totalShares > 50){\r\n                //update the status of the proposal\r\n                proposal.status = Status.Approved;\r\n            } else {\r\n                proposal.votesNo += shares[msg.sender];\r\n                if(proposal.votesNo * 100 / totalShares > 50){\r\n                    proposal.status = Status.Rejected;\r\n                }\r\n            }\r\n        }\r\n    }\r\n}",
  "sourcePath": "C:\\Users\\const\\Desktop\\Defi\\DAO\\contracts\\DAO.sol",
  "compiler": {
    "name": "solc",
    "version": "0.8.6+commit.11564f7e.Emscripten.clang"
  },
  "schemaVersion": "3.4.2",
  "updatedAt": "2021-08-31T19:34:32.932Z",
  "devdoc": {
    "kind": "dev",
    "methods": {},
    "version": 1
  },
  "userdoc": {
    "kind": "user",
    "methods": {},
    "version": 1
  }
}